S01900004D4A31305F4D4374726C5F51505F4B32302E73726563C6
S1130000F8FF002011040000C36A0000C36A000066
S1130010C36A0000C36A0000C36A0000C36A000028
S1130020C36A0000C36A0000C36A0000C36A000018
S1130030C36A0000C36A0000C36A0000C36A000008
S1130040C36A0000C36A0000C36A0000C36A0000F8
S1130050C36A0000C36A0000C36A0000C36A0000E8
S1130060C36A0000C36A0000C36A0000C36A0000D8
S1130070C36A0000C36A0000C36A0000C36A0000C8
S1130080C36A0000C36A0000C36A0000C36A0000B8
S1130090C36A0000C36A0000C36A0000C36A0000A8
S11300A0C36A0000C36A0000C36A0000C36A000098
S11300B0C36A0000C36A0000C36A0000C36A000088
S11300C0C36A0000C36A0000C36A0000C36A000078
S11300D0C36A0000E5C0000011C1000021C1000096
S11300E04DC100005FC1000075C1000085C1000062
S11300F095C100009DC30000C36A0000C36A0000EC
S1130100C36A0000C36A0000C36A0000C36A000037
S1130110C36A0000C36A0000C36A0000C36A000027
S1130120C36A0000C36A0000C36A0000C36A000017
S1130130C36A0000C36A0000C36A0000C36A000007
S1130140C36A0000C36A0000C36A0000C36A0000F7
S113015081ED0000C36A0000C36A0000C36A0000A6
S1130160C36A0000C36A0000C36A0000C36A0000D7
S1130170C36A0000C36A0000C36A0000C36A0000C7
S1130180C36A0000C36A0000C36A0000C36A0000B7
S1130190C36A0000C36A0000C36A0000C36A0000A7
S1130400FFFFFFFFFFFFFFFFFFFFFFFFFEFFFFFFF9
S11304104FF000004FF000014FF000024FF00003D6
S11304204FF000044FF000054FF000064FF00007B6
S11304304FF000084FF000094FF0000A4FF0000B96
S11304404FF0000C62B617F037F8FEE74EF688510D
S1130450CEF20001086840F4700008607047F1EEC5
S1130460100A7047E1EE100A7047B7EE000A7047B1
S113047010EE100A7047704742F64800C3F2764007
S113048047F29251C9F2732149F22452C2F26472C2
S113049049F29253C2F6180347F62804C0F27424B2
S11304A048F61415C1F2841541F23476C0F63606C6
S11304B047F24677C0F2120742F27238C0F20308DC
S11304C045F23429C3F2483945F6680AC4F2290AC8
S11304D049F2795BC5F2052B40F2966CC6F2652CA5
S11304E000EE100B20EE101B01EE102B21EE103B42
S11304F002EE104B22EE105B03EE106B23EE107B2A
S113050004EE108B24EE109B05EE10AB25EE10BB11
S113051006EE10CB26EE10EB07EE10DB27EE10FBF9
S113052008EE100B28EE101B09EE102B29EE103BE1
S11305300AEE104B2AEE105B0BEE106B2BEE107BC9
S11305400CEE107B2CEE106B0DEE105B2DEE104BB1
S11305500EEE103B2EEE102B0FEE101B2FEE100B99
S113056010EE100B30EE101B11EE102B31EE103B81
S113057012EE104B32EE105B13EE106B33EE107B69
S113058014EE100B34EE101B15EE102B35EE103B51
S113059016EE104B36EE105B17EE106B37EE107B39
S11305A018EE100B38EE101B19EE102B39EE103B21
S11305B01AEE104B3AEE105B1BEE106B3BEE107B09
S11305C01CEE100B3CEE101B1DEE102B3DEE103BF1
S11305D01EEE104B3EEE105B1FEE106B3FEE107BD9
S11305E0704700EE100A00EE901A01EE102A01EE98
S11305F0903A02EE104A02EE905A03EE106A03EEAD
S1130600907A04EE108A04EE909A05EE10AA05EE94
S113061090BA06EE10CA06EE90DA07EE10EA07EE7C
S113062090FA08EE107A08EE906A09EE105A09EE74
S1130630904A0AEE103A0AEE902A0BEE101A0BEECC
S1130640900A0CEE10AA0CEE909A0DEE108A0DEEA4
S1130650907A0EEE106A0EEE905A0FEE104A0FEEDC
S1130660903A10EE100A10EE901A11EE102A11EEC4
S1130670903A12EE104A12EE905A13EE106A13EEEC
S1130680907A14EE100A14EE901A15EE102A15EE54
S1130690903A16EE104A16EE905A17EE106A17EEBC
S11306A0907A18EE100A18EE901A19EE102A19EE24
S11306B0903A1AEE104A1AEE905A1BEE106A1BEE8C
S11306C0907A1CEE100A1CEE901A1DEE102A1DEEF4
S11306D0903A1EEE104A1EEE905A1FEE106A1FEE5C
S11306E0907A7047F1EE100AF1EE101AF1EE102A2A
S11306F0F1EE103AF1EE104AF1EE105AF1EE106AF2
S1130700F1EE107AF1EE108AF1EE109AF1EE10AAE1
S1130710F1EE10BAF1EE10CA6B467446F1EE10DA3F
S1130720F1EE10EA9D46A6467D4605F10805F1EE78
S113073010FAAF46E1EE10FAE1EE101AE1EE102ADB
S1130740E1EE103AE1EE104AE1EE105AE1EE106AE1
S1130750E1EE107AE1EE108AE1EE109AE1EE10AAD1
S1130760E1EE10BAE1EE10CAE1EE10DAE1EE10EAC1
S1130770E1EE100A70472DED200A2DED020ABDECC2
S1130780020ABDEC200A704740F20000C2F20000E9
S113079040F20401C2F2000140F20802C2F2000277
S11307A040F20C03C2F2000340F21004C2F200044F
S11307B040F21405C2F2000540F21806C2F2000627
S11307C040F21C07C2F2000740F22008C2F20008FF
S11307D040F22409C2F2000940F2280AC2F2000AD7
S11307E040F22C0BC2F2000B40F2FC3CC2F2000CB3
S11307F080ED000AC1ED000A82ED001AC3ED001A73
S113080084ED002AC5ED002A86ED003AC7ED003AD2
S113081088ED004AC9ED004A8AED005ACBED005A32
S11308208CED006AC0ED006A81ED007AC2ED007AB9
S113083083ED008AC4ED008A85ED009AC6ED009A26
S113084087ED00AAC8ED00AA80ED00BAC1ED00BA98
S113085082ED00CAC3ED00CA84ED00DAC5ED00DA0A
S113086086ED00EAC7ED00EA88ED00FAC9ED00FA6A
S113087080ED020AC0ED140A80ED201AC0ED401A82
S113088080ED802AC0EDC02A80EDFF3AC0ED003A29
S113089001ED014A45ED024A0CED205A4CED805A17
S11308A00CEDFF6AC8ED036A83ED017AC7ED047AA3
S11308B00BED048AC2ED058A07ED059AC1ED079A8E
S11308C082ED10AAC3ED12AA03ED02BA47ED07BAEE
S11308D08AED16CA4BED0ACA0BED09DA4CEDC0DA03
S11308E00CED80EA4CED7DEA0CED32FA4CED19FA90
S11308F080ED000B81ED001B82ED002B83ED003BAE
S113090084ED004B85ED005B86ED006B87ED007B8D
S113091088ED008B89ED009B80ED00AB82ED00BB80
S113092084ED00CB86ED00DB88ED00EB8AED00FB67
S113093080ED020B81ED141B82ED402B83ED803B97
S113094084EDC04B85EDFF5B90ED000AD1ED000A0C
S113095092ED001AD3ED001A94ED002AD5ED002A89
S113096096ED003AD7ED003A98ED004AD9ED004AE9
S11309709AED005ADBED005A9CED006AD0ED006A56
S113098091ED007AD2ED007A93ED008AD4ED008ADD
S113099095ED009AD6ED009A97ED00AAD0ED00AA45
S11309A091ED00BAD2ED00BA93ED00CADAED00CAB7
S11309B099ED00DAD8ED00DA97ED00EAD6ED00EA19
S11309C095ED00FAD4ED00FA90ED020AD0ED140A88
S11309D090ED201AD0ED401A90ED802AD0EDC02A77
S11309E090EDFF3AD0ED003A11ED014A55ED024A7F
S11309F01CED205A5CED805A1CEDFF6AD8ED036AA9
S1130A0093ED017AD7ED047A1BED048AD2ED058AC1
S1130A1017ED059AD1ED079A92ED10AAD3ED12AA1B
S1130A2013ED02BA57ED07BA9AED16CA5BED0ACA7E
S1130A301BED09DA5CEDC0DA1CED80EA5CED7DEAC1
S1130A401CED32FA5CED19FA9FED000ADFED000AA5
S1130A509FED001ADFED001A9FED002ADFED002A5A
S1130A609FED003ADFED003A9FED004ADFED004ACA
S1130A709FED005ADFED005A9FED006ADFED006A3A
S1130A809FED007ADFED007A9FED028ADFED048AA4
S1130A909FED089ADFED109A9FED20AADFED40AAA2
S1130AA09FED80BADFEDFFBA1FED40CA5FED20CAAB
S1130AB01FED14DA5FED09DA1FED06EA5FED03EAD4
S1130AC01FED01FADFED00FA90ED000B91ED001B34
S1130AD092ED002B93ED003B94ED004B95ED005B04
S1130AE096ED006B97ED007B98ED008B99ED009BE4
S1130AF090ED00AB92ED00BB94ED00CB96ED00DBE6
S1130B0098ED00EB9AED00FB90ED020B91ED141BB8
S1130B1092ED402B93ED803B94EDC04B95EDFF5B44
S1130B2018ED026B1CED147B1CED408B1CED809BBF
S1130B3090ED19AB91ED32BB92ED64BB93EDC8CB54
S1130B4014ED01DB14ED02EB1CED19FB704740F2D0
S1130B500000C2F2000040F28001C2F2000140F243
S1130B600012C2F2000240F28013C2F2000340F20B
S1130B700024C2F2000440F28025C2F2000540F2D3
S1130B800036C2F2000640F28037C2F2000740F29B
S1130B900048C2F2000840F28049C2F2000940F263
S1130BA0005AC2F2000A40F2805BC2F2000B80ECF1
S1130BB0200AA1EC200A82EC200AA3EC200A24EDEE
S1130BC0200A25ED200A96EC200AB7EC200A98ECBE
S1130BD0200A99EC200A3AED200A3BED200A7047DE
S1130BE07047B0EEC08AF0EEE08AB0EEC19AF0EE43
S1130BF0E19AB0EEC2AAF0EEE2AAB0EEC3BAF0EE09
S1130C00E3BAB0EEC4CAF0EEE4CAB0EEC5DAF0EE70
S1130C10E5DAB0EEC6EAF0EEE6EAB0EEC7FAF0EED8
S1130C20E7FA7047B1EE408AF1EE608AB1EE419A7C
S1130C30F1EE619AB1EE42AAF1EE62AAB1EE43BAC4
S1130C40F1EE63BAB1EE44CAF1EE64CAB1EE45DA2C
S1130C50F1EE65DAB1EE46EAF1EE66EAB1EE47FA94
S1130C60F1EE67FA7047B0EE408AF0EE608AB0EEBB
S1130C70419AF0EE619AB0EE42AAF0EE62AAB0EEAA
S1130C8043BAF0EE63BAB4EE408AF4EE608AB4EE8E
S1130C90419AF4EE619AB4EE42AAF4EE62AAB4EE7A
S1130CA043BAF4EE63BAB4EE44CAF4EE64CAB4EEE2
S1130CB045DAF4EE65DAB4EE46EAF4EE66EAB4EE4A
S1130CC047FAF4EE67FAB7EE000AF7EE000A30EEE0
S1130CD0600AF0EE400AB4EE600AB5EE400AB4EEE3
S1130CE0670A7047B7EE000AF0EE000AB0EE081A81
S1130CF0F1EE001AB1EE042AF1EE082AB1EE0C3A34
S1130D00F2EE003AB2EE024AB1EEC00AF1EEE00AA7
S1130D10B1EEC11AF1EEE11AB1EEC22AF1EEE22A05
S1130D20B1EEC33AF1EEE33AB1EEC44AF1EEE44A6D
S1130D30B1EEC55AF1EEE55AB1EEC66AF1EEE66AD5
S1130D40B1EEC77AF1EEE77AB1EEC88AF1EEE88A3D
S1130D50B1EEC99AF1EEE99A704730EE080A70EEE6
S1130D60A80A31EE091A71EEA91A32EE0A2A72EEB5
S1130D70AA2A33EE0B3A73EEAB3A34EE0C4A74EE15
S1130D80AC4A35EE0D5A75EEAD5A36EE0E6A76EE75
S1130D90AE6A37EE0F7A77EEAF7A704730EE480AD4
S1130DA070EEE80A31EE491A71EEE91A32EE4A2A77
S1130DB072EEEA2A33EE4B3A73EEEB3A34EE4C4AD7
S1130DC074EEEC4A35EE4D5A75EEED5A36EE4E6A37
S1130DD076EEEE6A37EE4F7A77EEEF7A704720EED2
S1130DE0080A60EEA80A21EE091A61EEA91A22EE99
S1130DF00A2A62EEAA2A23EE0B3A63EEAB3A24EEF9
S1130E000C4A64EEAC4A25EE0D5A65EEAD5A26EE58
S1130E100E6A66EEAE6A27EE0F7A67EEAF7A704717
S1130E2040F20000C2F2000090EC200A00EE080A32
S1130E3000EEA80A01EE090A01EEA90A02EE0A0A66
S1130E4002EEAA0A03EE0B0A03EEAB0A44EE4C0AC6
S1130E5044EEEC0A45EE4D0A45EEED0A46EE4E0A26
S1130E6046EEEE0A47EE4F0A47EEEF0A704740F2AD
S1130E700000C2F2000090EC200A60EE481A20EE56
S1130E80E82A61EE492A21EEE93A62EE4A3A52EE44
S1130E90EA0A53EE4B0A53EEEB0A54EE4C0A54EEB4
S1130EA0EC0A15EE0D1A15EEAD1A16EE0E1A16EE24
S1130EB0AE1A17EE0F1A704740F20000C2F200009B
S1130EC090EC200A80EE080AC0EEA80A81EE091A06
S1130ED0C1EEA91A82EE0A2AC2EEAA2A83EE0B3ABE
S1130EE0C3EEAB3A84EE0C4AC4EEAC4A85EE0D5A1E
S1130EF0C5EEAD5A86EE0E6AC6EEAE6A87EE0F7A7E
S1130F00C7EEAF7A70474FF60170CFF6FF7040F22C
S1130F100002C4F6807200EE100A10EE101A01EE00
S1130F20102AF8EE400A704710B582B0040003207E
S1130F30207604206076002060850020A0850FF2D2
S1130F40510020607D2114F1300002F07BFA207EF4
S1130F500090052314F13002DFF8641C14F14800FA
S1130F6002F08AFA607E0090062314F13002DFF862
S1130F70501C14F1580002F07FFA852114F1680026
S1130F8002F060FA862114F1800002F05BFA13BDCE
S1130F9010B504000A21200002F082FE3121200055
S1130FA002F07EFE3221200002F07AFE332120007E
S1130FB002F076FE3521200002F072FE3621200078
S1130FC002F06EFE3421200002F06AFE2E21200081
S1130FD002F066FE6621200002F062FE6721200016
S1130FE002F05EFE7521200002F05AFE122120005C
S1130FF002F056FE1321200002F052FE11212000BF
S113100002F04EFE0FF209002060022010BD000025
S113101010B586B004000888012808D0022854D0EE
S1131020032806D0312809D075280CD04FE00020C1
S113103051E00FF2A900206002204CE00FF20D10E5
S11310402060022047E072B6DFF8780BB0F9A20105
S1131050DFF8701BB1F9A01100220592002204925E
S113106080B2039089B2029100200190DFF8540B02
S1131070B0F86A0080B200900023A4220221207EEE
S113108080B203F0C3F8DFF83C0BB0F9A801DFF835
S1131090341BB1F9A611002205920022049280B2F9
S11310A0039089B2029100200190DFF8180BB0F888
S11310B06A0080B200900023A4220221607E80B2E4
S11310C003F0A4F862B6002005E0002003E0DFF896
S11310D0F80A2060032006B010BD00000988012929
S11310E004D0022912D00A290BD011E0DFF8DC0A5F
S11310F04088C0B250F40070DFF8D01A4880002055
S11311000AE00FF219010160022005E0002003E06B
S1131110DFF8BC1A01600320704700000988012928
S113112002D002290BD00CE0DFF8A00A4088C0B23C
S113113050F44070DFF8941A4880002005E0002045
S113114003E0DFF88C1A0160032070471CB504002B
S11311500888401E0FD0401E7AD04338032864D933
S1131160213862D00F3871D0401F64D0C01E5CD0CB
S113117008383FD088E0DFF8540A4088C0B250F401
S11311808060DFF8481A488014F1680003F01CFA04
S1131190DFF8300AB0F9BC07002821D1452120002E
S11311A002F07EFD4621200002F07AFD4721200056
S11311B002F076FD4821200002F072FD7C20ADF89B
S11311C0040001A914F1480003F01EFA0020E067AE
S11311D04FF47A62210014F1680003F02BFA07E05F
S11311E00020E0676422210014F1680003F022FA71
S11311F000204DE0DFF8CC09B0F9BC07012808D184
S113120000200090002305227A21200003F04EFBE9
S113121009E040F28B300090002300220421DFF823
S1131220B40903F043FB002032E014F1480003F05A
S1131230EBF900202CE00879217E884204D10FF2DA
S113124055002060022023E0002021E000201FE060
S1131250DFF87009B0F9BC07002813D1452120003C
S113126003F03CFC4621200003F038FC4721200019
S113127003F034FC4821200003F030FC14F1680032
S113128003F0A2F9002003E0DFF844092060032002
S113129016BD00001CB504000888401E0FD0401E77
S11312A07AD04338032864D9223862D00E3871D0FA
S11312B0401F64D0C01E5CD008383FD088E0DFF8FF
S11312C00C094088C0B250F4A060DFF800194880CF
S11312D014F1680003F078F9DFF8E808B0F9BC0706
S11312E0002821D14521200002F0DAFC462120000B
S11312F002F0D6FC4721200002F0D2FC4821200055
S113130002F0CEFC7C20ADF8040001A914F15800D1
S113131003F07AF90020E0674FF47A62210014F1B7
S1131320680003F087F907E00020E06764222100E9
S113133014F1680003F07EF900204DE0DFF8840822
S1131340B0F9BC07012808D1002000900023062230
S11313507A21200003F0AAFA09E04FF463700090A8
S1131360002300220421DFF86C0803F09FFA002018
S113137032E014F1580003F047F900202CE008791A
S1131380617E884204D10FF255002060022023E0E0
S1131390002021E000201FE0DFF82808B0F9BC0796
S11313A0002813D14521200003F098FB462120009A
S11313B003F094FB4721200003F090FB4821200018
S11313C003F08CFB14F1680003F0FEF8002003E046
S11313D0DFF8FC072060032016BD000080B50988F3
S11313E0012904D0022977D0852912D076E0DFF8CC
S11313F0DC174988C9B251F4C061DFF8D0275180A5
S11314000021C16704220100683003F013F90020B1
S113141068E000210022DFF8AC37B3F93C30012B3F
S113142004D02CD3032B1DD00ED328E0DFF894175F
S1131430B1F93E10DFF88C27B2F88820891ADFF85A
S11314408427B2F940201AE0DFF87817B1F9421086
S1131450DFF87027B2F88820891ADFF86827B2F914
S113146044200CE0DFF85C17B1F94610DFF854278C
S1131470B2F88820891ADFF84C27B2F94820438D46
S11314805918838D9A1809B2002907D112B2002A7B
S113149004D10FF255010160022023E009B2DFF804
S11314A038371960DFF81C17B1F86810DFF82C37EB
S11314B0198012B2DFF828170A60DFF80817B1F8AC
S11314C06810DFF8202711800FF21D01C161DFF8D9
S11314D018170160022005E0002003E0DFF8F01691
S11314E00160032002BD000038B50400088801280B
S11314F011D0022800F0008311282BD0122800F00C
S1131500C382132800F0C082322800F0B882352844
S113151000F0B582F2E2DFF8B4064088C0B250F4BD
S1131520E060DFF8A8164880002000900023002225
S11315303721DFF8A00603F0B9F90020DFF8AC1674
S113154008800020DFF8A8160880002084F829000D
S11315500020D6E20A79B1F906000021DFF87836D6
S113156019600021DFF878361960DFF85816B1F8F1
S11315706810DFF868361980DFF84816B1F868108B
S1131580DFF860361980D2B2002A40F0918100B2AF
S1131590002845D1DFF82C06B0F90808DFF84C160E
S11315A0B1F90010401ADFF830160860DFF81406AD
S11315B0B0F90A08DFF83816B1F90010401ADFF85C
S11315C020160860DFF810060068DFF82016098886
S11315D04018DFF818160880DFF804060068DFF802
S11315E0101609884018DFF808160880DFF804068A
S11315F0E0610020DFF800160860DFF8DC05006811
S1131600002808D1DFF8D8050068002803D1E06974
S11316102060022075E2DFF8E4052060022070E219
S113162000B20128C0F2A980DFF8CC150968DFF800
S11316309425D2F80428521E914201D1002060E280
S1131640DFF8B415096811F1010F01D1002102E09E
S1131650DFF8A415096801FA80F1DFF86825D2F8EB
S11316600428521E914205D3DFF85805D0F8040827
S1131670401E0BE0DFF88015096811F1010F01D15C
S1131680002102E0DFF8701509680818DFF8681512
S11316900D681EE0DFF840150968DFF828250323EC
S11316A003FB052292F9812841FA82F1DFF828250B
S11316B01160DFF82C150968DFF80825032303FB04
S11316C0052292F9822841FA82F1DFF8142511608B
S11316D06D1C00B2854219DA15F1010FDAD1DFF879
S11316E0F8140968DFF8DC24B2F908288918DFF84F
S11316F0E8241160DFF8E8140968DFF8C824B2F9B7
S11317000A288918DFF8D8241160E1E7DFF8C81443
S11317100968DFF8D82412888918DFF8D0241180EA
S1131720DFF8BC140968DFF8C82412888918DFF8C8
S1131730C024118000B2DFF8C0140860DFF8B804D8
S11317400068002803D1DFF8AC04E06102E0DFF8B0
S1131750100CE061DFF880040068002808D1DFF88D
S113176080040068002803D1E06920600220C8E1F9
S1131770DFF8880420600220C3E100B2002840F1B1
S11317807C81DFF87414096811F1010F01D1002084
S1131790B7E1DFF86414096801FA80F111F1010F6F
S11317A002DA5FF0FF3003E0DFF84C140968081830
S11317B000B205001CE0DFF820140968DFF80424F7
S11317C0032303FB052292F98128891ADFF80824F0
S11317D01160DFF80C140968DFF8E823032303FB26
S11317E0052292F98228891ADFF8F42311606D1C0E
S11317F0DFF8041409688D4219DA15F1010FDAD102
S1131800DFF8D4130968DFF8BC23B2F90828891A71
S1131810DFF8C4231160DFF8C8130968DFF8A423D4
S1131820B2F90A28891ADFF8B8231160DFE7DFF874
S1131830A8130968DFF8B42312888918DFF8AC23E9
S11318401180DFF89C130968DFF8A4231288891833
S1131850DFF89C23118000B2DFF89C130860DFF8E6
S11318609803006810F1010F03D1DFF8F80AE06172
S11318700BE0DFF884030068002803D1DFF8740369
S1131880E06102E0DFF8D80AE061DFF84C030068A9
S1131890002808D1DFF848030068002803D1E06974
S11318A0206002202DE1DFF854032060022028E1AB
S11318B0D2B2012A7DD1DFF8400305681CE0DFF8CD
S11318C018030068DFF8FC12032202FB051191F9EA
S11318D0811840FA81F0DFF800130860DFF8000394
S11318E00068B849032202FB051191F9821840FAF5
S11318F081F0BB4908606D1C280003F02FF9B14941
S1131900D1F80418491E884280F0B780BA480068AC
S1131910A8423ADA002D38D0AA48032101FB050079
S113192090F88008DFF8401A0870DFF83C0A007865
S113193001282AD1A8480068AC4909884018AB4955
S11319400880A7480068AA4909884018A84908805F
S1131950A9480560A8480068002803D10FF2A12017
S1131960E06102E0DFF8F809E0619B4800680028C4
S113197007D19B480068002803D1E0692060022059
S1131980BFE09E4820600220BBE015F1010F96D114
S1131990914800688B49B1F9081840188E490860CD
S11319A08F4800688749B1F90A1840188C490860C3
S11319B0A1E7D2B2022A60D18F480068002804D07F
S11319C08D48006810F1010F01D1002099E08A4888
S11319D0056800E06D1E012D4FDB7F4800687949E2
S11319E0032202FB051191F97E18401A7A49086016
S11319F07B4800687349032202FB051191F97F18A3
S1131A00401A774908606F48032101FB050090F8EC
S1131A107D08DFF854190870DFF84C0900780128B4
S1131A20D8D16D4800687149098840186F49088009
S1131A306B4800686E49098840186D490880681E23
S1131A406D4908606C480068002803D10FF2B1109A
S1131A50E06102E0DFF80809E0615F4800680028FF
S1131A6007D15F480068002803D1E06920600220A4
S1131A7047E062482060022043E0002041E00FF28A
S1131A808500206002203CE0B1F90400524A106055
S1131A904C48B0F86800514A1080B1F90600504A29
S1131AA010604848B0F868004E4A10804A48006800
S1131AB000280CD14A480068002808D1002060851D
S1131AC00020A085DFF80C0B2060022019E0DFF86D
S1131AD09408E0610888122809D1608D3E4909689C
S1131AE008186085A08D3E4909680818A085DFF8AC
S1131AF0E80A2060022004E0002002E0344820606C
S1131B00032032BD80B50988012904D0022950D0B0
S1131B10852910D04FE02D494988C9B251F400619C
S1131B202A4A51800021C16704220100683002F072
S1131B3081FD002042E02349B1F908182B4AB2F98B
S1131B400020891A244A11601E49B1F86810234AFA
S1131B5011801C49B1F90A18254AB2F90020891AE2
S1131B601F4A11601749B1F868101E4A11801A49BA
S1131B7009681E4A128889181C4A11801849096884
S1131B801B4A128889181A4A1180134909680029C6
S1131B9008D113490968002904D10FF265010160D5
S1131BA002200BE00FF25901C1610F4901600220CC
S1131BB004E0002002E006490160032002BD0000A9
S1131BC0D414FF1F3C36FF1F697B0100DC16FF1F86
S1131BD0111000004425FF1FD0B60020D4B6002009
S1131BE0E4B60020E8B60020792F0000CCB600202F
S1131BF0E0B60020011C0000C0B500206D230000E9
S1131C0038B50400088801280DD0022800F0A1830B
S1131C10112800F0F680332819D0342800F0AF8062
S1131C2035285CD097E3DFF8B4094088C0B250F49B
S1131C301060DFF8A81948800020009000230022DB
S1131C403821DFF89C0902F031FE002087E3486860
S1131C502062DFF89009216A032202FB010090F957
S1131C608108DFF87C1991F99F1041FA80F0DFF8C0
S1131C7078190860DFF86C09216A032202FB01006D
S1131C8090F98208DFF864190860DFF85809B0F8A1
S1131C90A401DFF85C190880DFF84809B0F8AA014C
S1131CA0DFF850190880DFF840090068DFF84819A8
S1131CB009884018DFF840190880DFF83009006807
S1131CC0DFF8381909884018DFF830190880DFF880
S1131CD09006E061DFF82809206002203FE34868AD
S1131CE02062DFF80009216A032202FB010090F957
S1131CF08108DFF8F4180860DFF8E808B0F86A0033
S1131D00DFF8EC180880DFF8DC08216A032202FB04
S1131D10010090F98208DFF8D4180860DFF8C408DD
S1131D20B0F86A00DFF8CC180880DFF8BC08006857
S1131D30DFF8C41809884018DFF8BC180880DFF8F9
S1131D40AC080068DFF8B41809884018DFF8AC184C
S1131D500880DFF80C06E061DFF88C0800680028D2
S1131D6008D1DFF888080068002803D1E069206002
S1131D700220F4E2DFF88C0820600220EFE2B1F9DF
S1131D800400DFF864281060DFF85808B0F86C002D
S1131D90DFF85C281080B1F90600DFF850180860FD
S1131DA0DFF84008B0F86C00DFF848180880DFF866
S1131DB038080068DFF8401809884018DFF8381838
S1131DC00880DFF828080068DFF830180988401810
S1131DD0DFF828180880DFF88805E061DFF80808D4
S1131DE00068002808D1DFF804080068002803D13F
S1131DF0E06920600220B2E2DFF8080820600220D7
S1131E00ADE20A79B1F906000021DFF8DC37196088
S1131E100021DFF8D8371960DFF8C817B1F8681067
S1131E20DFF8CC371980DFF8BC17B1F86810DFF899
S1131E30C4371980D2B2002A40F08F8100B2002842
S1131E4045D1DFF8A007B0F90808DFF8AC17B1F9FD
S1131E500010401ADFF890170860DFF88807B0F91F
S1131E600A08DFF89817B1F90010401ADFF87C1758
S1131E700860DFF874070068DFF87C1709884018E9
S1131E80DFF874170880DFF864070068DFF86C1760
S1131E9009884018DFF864170880DFF86C07E061F0
S1131EA00020DFF868170860DFF83C0700680028A6
S1131EB008D1DFF838070068002803D1E069206002
S1131EC002204CE2DFF838072060022047E200B22B
S1131ED00128C0F2A980DFF834170968DFF8042765
S1131EE0D2F80428521E914201D1002037E2DFF8D3
S1131EF01C17096811F1010F01D1002102E0DFF87C
S1131F000C17096801FA80F1DFF8D826D2F8042802
S1131F10521E914205D3DFF8CC06D0F80408401EC7
S1131F200BE0DFF8E816096811F1010F01D1002177
S1131F3002E0DFF8D81609680818DFF8D0160D6833
S1131F401EE0DFF8A4160968DFF89826032303FBD4
S1131F50052292F9812841FA82F1DFF88C2611607A
S1131F60DFF888160968DFF87C26032303FB0522C3
S1131F7092F9822841FA82F1DFF8702611606D1C13
S1131F8000B2854219DA15F1010FDAD1DFF85816DB
S1131F900968DFF85026B2F908288918DFF84826BE
S1131FA01160DFF848160968DFF83826B2F90A2804
S1131FB08918DFF838261160E1E7DFF82C16096884
S1131FC0DFF8342612888918DFF82C261180DFF810
S1131FD01C160968DFF8242612888918DFF81C26E5
S1131FE0118000B2DFF824160860DFF820060068CC
S1131FF0002803D1DFF81006E06102E0DFF8600397
S1132000E061DFF8E4050068002808D1DFF8DC05AA
S11320100068002803D1E069206002209FE1DFF816
S1132020E005206002209AE100B2002840F18F818F
S1132030DFF8D815096811F1010F01D100208EE1F4
S1132040DFF8C815096801FA80F111F1010F02DA0D
S11320505FF0FF3003E0DFF8B4150968081800B238
S113206005001CE0DFF880150968DFF878250323F4
S113207003FB052292F98128891ADFF86C25116087
S1132080DFF868150968DFF85C25032303FB0522E4
S113209092F98228891ADFF8542511606D1CDFF843
S11320A06C1509688D4219DA15F1010FDAD1DFF8E0
S11320B038150968DFF82C25B2F90828891ADFF8E1
S11320C028251160DFF824150968DFF81825B2F90E
S11320D00A28891ADFF814251160DFE7DFF80815EC
S11320E00968DFF8142512888918DFF80C25118097
S11320F0DFF8F8140968DFF8042512888918DFF876
S1132100FC24118000B2DFF804150860DFF8FC0439
S1132110006810F1010F02D19248E0610AE0DFF893
S1132120EC040068002803D1DFF8DC04E06101E07E
S11321308B48E061DFF8B0040068002808D1DFF8BC
S1132140AC040068002803D1E0692060022006E1A5
S11321500FF219202060022001E1D2B2012A40F0DE
S11321609180DFF8A80405681EE0DFF87C040068AD
S1132170DFF87014032202FB051191F9811840FA6B
S113218081F0DFF864140860DFF860040068DFF8A9
S11321905414032202FB051191F9821840FA81F0CC
S11321A0DFF8481408606D1C280002F0D7FCDFF843
S11321B03414D1F80418491E884280F0C880DFF82E
S11321C04C040068A84243DA002D41D0DFF814041F
S11321D0032101FB050090F88008634908706248F8
S11321E00078012834D1DFF800040068DFF808140F
S11321F009884018DFF800140880DFF8F00300684D
S1132200DFF8F81309884018DFF8F0130880DFF8C6
S1132210FC030560DFF8F4030068002803D1DFF84D
S1132220E803E06101E04E48E061DFF8BC030068C8
S1132230002808D1DFF8B4030068002803D1E0695E
S1132240206002208BE00FF225102060022086E03F
S113225015F1010F89D1DFF890030068DFF88413CA
S1132260B1F908184018DFF880130860DFF87C0320
S11322700068DFF87013B1F90A184018DFF86C131E
S1132280086090E7D2B2022A61D1DFF880030068C7
S1132290002805D0DFF87403006810F1010F01D1A4
S11322A000205CE0DFF86403056800E06D1E012D8A
S11322B04DDBCD480068CB49032202FB051191F99F
S11322C07E18401AC8490860C8480068C5490322F6
S11322D002FB051191F97F18401AC4490860C148EE
S11322E0032101FB050090F87D081F4908701E4872
S11322F000780128DAD1BC480068BF490988401831
S1132300BD490880B9480068BC4909884018BB49E0
S11323100880681EBD490860BC480068002802D1D6
S1132320B948E06102E00FF2E920E061AE480068DC
S1132330002807D1AD480068002803D1E069206077
S113234002200CE00FF225002060022007E00020AC
S113235005E0002003E0DFF81C0C2060032032BD00
S113236011260000E9140000F7B70020F0B587B08B
S11323700400088801280CD0022800F02381662874
S113238000F00081672800F00D81862800F0E380CA
S11323901AE192484088C0B250F430608F494880B6
S11323A072B69148006802F0D9FB0F282FDA8D48E5
S11323B0B0F9A2218B48B0F9A0318D48B0F90000E2
S11323C089490D688749B1F98A60874909680027F6
S11323D00597002704971E3A92B20392B3F11E02A6
S11323E092B202920022019280B2009036B206FBB1
S11323F005F0030C9BB27B48B0F98A0011FB00F294
S113240092B20221207E80B201F000FF2BE07548D9
S1132410B0F9A2017349B1F9A011754AB2F90020CB
S1132420714B1B686F4DB5F98A506F4E36680027A3
S113243005970027049780B2039089B20291002087
S1132440019092B200922DB205FB03F0030C9BB2F3
S11324506448B0F98A0016FB00F292B20221207E91
S113246080B201F0D3FE6148006802F077FB0F28C8
S113247030DA5C48B0F9A8215A48B0F9A6315D4871
S1132480B0F9000059490D685649B1F98C605749B3
S1132490096800270597002704971E3A92B2039211
S11324A0B3F11E0292B202920022019280B2009015
S11324B0684236B27043030C9BB248424949B1F9B1
S11324C08C1010FB01F292B20221607E80B201F006
S11324D09DFE2CE04348B0F9A8014249B1F9A61188
S11324E0444AB2F90020414B1B683E4DB5F98C506B
S11324F03E4E3668002705970027049780B2039064
S113250089B202910020019092B2009258422DB2F9
S11325106843030C9BB270423249B1F98C1010FB32
S113252001F292B20221607E80B201F06FFE62B6C7
S1132530002084F828002B48B0F9BC07012808D1F2
S11325400020C4F894006422210014F1800002F0F9
S113255071F800203CE02348B0F9BC0701280FD1F2
S113256000200090002300226621200002F09EF942
S113257000200090002300226721200002F096F939
S1132580002025E094F8280050F0010084F8280089
S113259094F82800800703D5E0692060022017E042
S11325A0002015E094F8280050F0020084F8280078
S11325B094F82800C00703D5E0692060022007E0F2
S11325C0002005E0002003E0DFF8A80920600320D4
S11325D007B0F0BD4D110000C9310000DC16FF1F2B
S11325E04425FF1F3C36FF1FD0B60020E4B6002070
S11325F0D4B60020E8B60020CCB60020E0B6002017
S11326006D230000792F0000011C0000C0B50020DC
S113261038B504000888012818D0022800F0A384E3
S1132620112843D0312800F09984322800F05684D0
S1132630332800F0FD82342800F01A84352800F095
S1132640C783362800F0698300F08FBCDFF8500B95
S11326504088C0B250F42060DFF8441B488000205A
S11326600090002300223921DFF8380B02F01EF914
S1132670DFF8340BB0F9C607022806D1DFF8200BC7
S11326800088C0B2DFF8181B0880DFF81C0BB0F913
S1132690C807022807D1DFF8080B808810F47F40B0
S11326A0DFF8FC1A8880002000F062BC0A79B1F9D6
S11326B006000021DFF8F43A19600021DFF8F03A4F
S11326C01960DFF8E41AB1F86810DFF8E83A198005
S11326D0DFF8D41AB1F86810DFF8DC3A1980D2B206
S11326E0002A40F0928100B2002846D1DFF8B80AEF
S11326F0B0F90808DFF8C41AB1F90010401ADFF87D
S1132700AC1A0860DFF8A00AB0F90A08DFF8F81C70
S1132710B1F90010401ADFF8981A0860DFF88C0A43
S11327200068DFF8981A09884018DFF8901A0880C2
S1132730DFF87C0A0068DFF8D01C09884018DFF84D
S1132740C81C0880DFF8780AE0610020DFF8741AFA
S11327500860DFF8580A0068002809D1DFF8500A39
S11327600068002804D1E0692060022000F000BC69
S1132770DFF8980C20600220FAE300B20128C0F2CE
S1132780A980DFF8401A0968DFF81C2AD2F8042867
S1132790521E914201D10020EAE3DFF8281A0968A9
S11327A011F1010F01D1002102E0DFF8181A0968C4
S11327B001FA80F1DFF8F029D2F80428521E914280
S11327C005D3DFF8E409D0F80408401E0BE0DFF875
S11327D0F419096811F1010F01D1002102E0DFF8B9
S11327E0E41909680818DFF8DC190D681EE0DFF841
S11327F0BC190968DFF8B029032303FB052292F909
S1132800812841FA82F1DFF8A4291160DFF8A019C8
S11328100968DFF89429032303FB052292F982282F
S113282041FA82F1DFF8882911606D1C00B28542FB
S113283019DA15F1010FDAD1DFF870190968DFF838
S11328406829B2F908288918DFF860291160DFF8CF
S113285060190968DFF85029B2F90A288918DFF8E5
S113286050291160E1E7DFF844190968DFF84C29C1
S113287012888918DFF844291180DFF834190968AF
S1132880DFF8842B12888918DFF87C2B118000B2C2
S1132890DFF830190860DFF82C090068002803D13C
S11328A0DFF81C09E06102E0DFF8640BE061DFF8A7
S11328B0FC080068002808D1DFF8F4080068002844
S11328C003D1E0692060022052E3DFF8400B20606E
S11328D002204DE300B2002840F1A881DFF8E4189B
S11328E0096811F1010F01D1002041E3DFF8D41888
S11328F0096801FA80F111F1010F02DA5FF0FF308B
S113290003E0DFF8C0180968081800B205001CE0ED
S1132910DFF898180968DFF89028032303FB0522E1
S113292092F98128891ADFF884281160DFF8801869
S11329300968DFF87428032303FB052292F982282F
S1132940891ADFF86C2811606D1CDFF878180968A3
S11329508D4219DA15F1010FDAD1DFF85018096840
S1132960DFF84428B2F90828891ADFF840281160F2
S1132970DFF83C180968DFF83028B2F90A28891A08
S1132980DFF82C281160DFE7DFF820180968DFF88A
S11329902C2812888918DFF824281180DFF81018F1
S11329A00968DFF8642A12888918DFF85C2A118024
S11329B000B2DFF810180860DFF80808006810F1AA
S11329C0010F03D1DFF84C0AE0610BE0DFF8F407F4
S11329D00068002803D1DFF8E807E06102E0DFF8CF
S11329E0300AE061DFF8C4070068002808D1DFF886
S11329F0C0070068002803D1E06920600220B7E224
S1132A00DFF8080A20600220B2E2D2B2012A40F0C4
S1132A109480DFF8B00705681EE0DFF890070068CF
S1132A20DFF88417032202FB051191F9811840FA9B
S1132A3081F0DFF878170860DFF874070068DFF8C2
S1132A406817032202FB051191F9821840FA81F0FC
S1132A50DFF85C1708606D1C280002F07FF8DFF8CF
S1132A604817D1F80418491E884280F0DF80DFF847
S1132A7054070068A84246DA002D44D0DFF828073E
S1132A80032101FB050090F88008DFF88C19087019
S1132A90DFF884090078012835D1DFF810070068D1
S1132AA0DFF8181709884018DFF810170880DFF8D6
S1132AB000070068DFF8501909884018DFF8481942
S1132AC00880DFF800070560DFF8F80600680028D2
S1132AD003D1DFF8EC06E06102E0DFF83409E061DD
S1132AE0DFF8C8060068002808D1DFF8C4060068CB
S1132AF0002803D1E0692060022039E2DFF80C09E4
S1132B002060022034E215F1010F86D1DFF89C0623
S1132B100068DFF89416B1F908184018DFF88C162D
S1132B200860DFF88C060068DFF87C16B1F90A1833
S1132B304018DFF87C1608608DE7D2B2022A75D1FE
S1132B40DFF880060068002805D0DFF87806006802
S1132B5010F1010F01D100200AE2DFF868060568D0
S1132B6000E06D1E012D61DBDFF840060068DFF830
S1132B703816032202FB051191F97E18401ADFF87A
S1132B802C160860DFF828060068DFF81C160322FC
S1132B9002FB051191F97F18401ADFF8141608603A
S1132BA0DFF80406032101FB050090F87D08DFF837
S1132BB068180870DFF8600800780128D1D1DFF8C0
S1132BC0EC050068DFF8F41509884018DFF8EC1507
S1132BD00880DFF8DC050068DFF82C180988401845
S1132BE0DFF824180880681EDFF8D8150860DFF8BD
S1132BF0D4050068002803D1DFF8C405E06102E0D1
S1132C00DFF80C08E061DFF8A4050068002808D1AB
S1132C10DFF89C050068002803D1E06920600220E9
S1132C20A6E1DFF8E80720600220A1E100209FE18F
S1132C3048682062DFF87005216A032202FB010064
S1132C4090F98108DFF85C1591F99F1041FA80F042
S1132C50DFF858150860DFF85005216A032202FBEB
S1132C60010090F98208DFF848150860DFF838059C
S1132C70B0F8A401DFF83C150880DFF82C05B0F8A3
S1132C80AA01DFF834150880DFF820050068DFF8B2
S1132C902C1509884018DFF824150880DFF8100582
S1132CA00068DFF8641709884018DFF85C170880AB
S1132CB0DFF8F404B0F9C607022810D1DFF8E804FD
S1132CC0216A032202FB010090F98108DFF8D01485
S1132CD00988C9B251EA0020DFF8C4140880DFF87B
S1132CE0C804B0F9C80702280FD1DFF8BC04216A70
S1132CF0032202FB010090F98208DFF8A4148988FA
S1132D0060F30701DFF898048180DFF80407E061CD
S1132D10DFF8F806206002202AE148682062DFF824
S1132D208804216A032202FB010090F981084042D1
S1132D3000B2DFF878140860DFF86C04B0F86C00B7
S1132D40DFF870140880DFF86004216A032202FBB4
S1132D50010090F98208404200B2DFF85414086080
S1132D60DFF84404B0F86C00DFF84C140880DFF896
S1132D703C040068DFF8441409884018DFF83C1468
S1132D800880DFF82C040068DFF87C1609884018F6
S1132D90DFF874160880206A002803D1DFF82004C5
S1132DA0E06102E0DFF86806E061DFF80004006833
S1132DB0002808D1DFF8F8030068002803D1E0698F
S1132DC020600220D4E00FF2B11020600220CFE096
S1132DD048682062DFF8D003216A032202FB010065
S1132DE090F98108DFF8C4130860DFF8BC03B0F879
S1132DF06A00DFF8C0130880DFF8AC03216A0322FD
S1132E0002FB010090F98208DFF8A4130860DFF8E0
S1132E109803B0F86A00DFF8A0130880DFF88C0389
S1132E200068DFF8981309884018DFF890130880C9
S1132E30DFF87C030068DFF8D01509884018DFF854
S1132E40C8150880DFF8C805E061DFF86003006892
S1132E50002808D1DFF858030068002803D1E0698E
S1132E602060022084E00FF21110206002207FE035
S1132E70B1F90400CD4A1060CB48B0F86C00CD4ADB
S1132E801080B1F90600CA490860C748B0F86C0060
S1132E90C9490880C5480068C84909884018C74915
S1132EA00880C3480068DFF8601509884018DFF817
S1132EB058150880DFF85805E061BC480068002810
S1132EC007D1BB480068002803D1E06920600220D4
S1132ED04EE00FF2A5002060022049E0B248B0F9AC
S1132EE00808B649B1F90010401AB0490860AE4864
S1132EF0B0F86800AF490880AB48B0F90A08DFF8B9
S1132F000815B1F90010401AA9490860A648B0F89C
S1132F106800A9490880A5480068A849098840189C
S1132F20A6490880A2480068DFF8DC140988401824
S1132F30DFF8D4140880A248E0619C4800680028A7
S1132F4007D19B480068002803D1E0692060022073
S1132F500EE00FF225002060022009E0DFF8BC0437
S1132F602060022004E0002002E0024820600320E8
S1132F7032BD000011100000F0B587B004000888CD
S1132F8001280FD0022800F00081662800F0DB80C1
S1132F90672800F0E880752800F0F580862800F0A6
S1132FA09F80F8E07E484088C0B250F440607C497D
S1132FB04880002084F8280072B67C480068002805
S1132FC006D194F8280050F0010084F828002FE07E
S1132FD07548B0F9A2217448B0F9A0317548B0F928
S1132FE0000072490D687049B1F98A606F49096837
S1132FF0002705970027049792B2920092B2039299
S11330009BB29A0092B202920022019280B2009086
S113301036B206FB05F0030C9BB26348B0F98A0094
S113302011FB00F292B20221207E80B201F0EEF890
S11330305F480068002806D194F8280050F0020088
S113304084F828002CE05848B0F9A8015649B1F991
S1133050A611594AB2F90020554B1B68524DB5F9D7
S11330608C50534E3668002705970027049780B28A
S1133070039089B202910020019092B200925842CA
S11330802DB26843030C9BB270424749B1F98C10CE
S113309010FB01F292B20221607E80B201F0B6F818
S11330A062B614F1800001F08FFA3F48B0F9BC0712
S11330B0012809D10020C4F894006422210014F1ED
S11330C0800001F0B7FA09E00020C4F8940041F24E
S11330D07072210014F1800001F0ACFA00205DE070
S11330E03148B0F9BC07012810D10020009000231A
S11330F000226621200001F0D9FB0020009000236B
S113310000226721200001F0D1FB1AE094F8280086
S1133110C00709D440F28F3000900023002204211C
S1133120204801F0C3FB0CE094F82800800708D481
S11331304FF464700090002300220421194801F028
S1133140B5FB00202AE094F8280050F0010084F830
S1133150280094F82800800703D5E0692060022045
S11331601CE000201AE094F8280050F0020084F8D3
S1133170280094F82800C00703D5E06920600220E5
S11331800CE000200AE0002008E014F1800001F0C7
S11331901BFA002002E0A2482060032007B0F0BD23
S11331A0DC16FF1F4425FF1F3C36FF1FD0B600204E
S11331B0E4B60020D4B60020E8B60020CCB6002047
S11331C0011C0000C0B50020F0B587B004000888D9
S11331D0012811D0022800F00C812E2820D0662866
S11331E000F0E580672800F0F280752800F0FF8089
S11331F0862800F0A98002E18A484088C0B250F4D1
S11332005060884948800020009000230022262135
S1133210854801F04BFB002084F828000020F1E0F1
S113322072B682480068002806D194F8280050F04D
S1133230010084F828002FE07D48B0F9A2217C48E1
S1133240B0F9A0317B48B0F9000078490D6878499D
S1133250B1F98A6075490968002705970027049722
S113326092B2920092B203929BB29A0092B20292EC
S11332700022019280B2009036B206FB05F0030CE6
S11332809BB26B48B0F98A0011FB00F292B20221A2
S1133290207E80B200F0BAFF67480068002806D19B
S11332A094F8280050F0020084F828002CE06048CC
S11332B0B0F9A8015E49B1F9A611604AB2F900203B
S11332C05D4B1B685A4DB5F98C505B4E3668002730
S11332D005970027049780B2039089B202910020D9
S11332E0019092B2009258422DB26843030C9BB2F3
S11332F070424F49B1F98C1010FB01F292B20221D5
S1133300607E80B200F082FF62B614F1800001F0AA
S11333105BF94748B0F9BC07012809D10020C4F87B
S113332094006422210014F1800001F083F909E083
S11333300020C4F8940041F27072210014F180005E
S113334001F078F900205DE03948B0F9BC070128A4
S113335010D100200090002300226621200001F0FB
S1133360A5FA00200090002300226721200001F02C
S11333709DFA1AE094F82800C00709D440F28F306F
S113338000900023002204212D4801F08FFA0CE064
S113339094F82800800708D44FF464700090002348
S11333A000220421264801F081FA00202AE094F842
S11333B0280050F0010084F8280094F828008007C1
S11333C003D5E069206002201CE000201AE094F894
S11333D0280050F0020084F8280094F82800C00760
S11333E003D5E069206002200CE000200AE0002000
S11333F008E014F1800001F0E7F8002002E008483A
S11334002060032007B0F0BDE0B600206D2300006B
S113341011260000E9140000F7B700204D11000048
S113342011100000DC16FF1FE425FF1FD0B600209A
S11334303C36FF1FD4B60020E4B60020E8B60020D6
S11334404425FF1F38B504000D00ADB2042D03DA86
S11334502921084801F08AFB002060600020A06058
S11334600020E060002020610020606125800020B1
S1133470A07031BDF47A010010B50FF21904046094
S113348041608260037302994173002101F070FB73
S113349010BD00000FF20901016002207047000016
S11334A080B50A88012A08D0022A46D0452A2ED09F
S11334B0462A37D07C2A11D041E0DFF8BC07B0F9A6
S11334C0C407022808D1DFF8B4078088C0B250F4DA
S11334D08050DFF8A8178880002031E0417B002964
S11334E005D0417B012902D0417B022904D10FF28E
S11334F0C9610160022023E0002100910023027BC6
S11335004121DFF87C0701F0D1F9002018E00979A6
S1133510027B914204D10FF2C921016002200FE025
S113352000200DE00979027B914204D10FF21501CC
S11335300160022004E0002002E0002000E00020FE
S113354002BD000010B586B00400088801280CD024
S1133550022800F0C080452800F0B280472800F01F
S1133560AF807D2800F0A180C0E0DFF80C07B0F93F
S1133570C407022808D1DFF804078088C0B250F4D9
S11335808850DFF8F8168880A06801F01DF8002044
S1133590A16848610A226168A06801F04BF8002024
S11335A000900123227B4221DFF8D40601F07EF94A
S11335B072B6607B04284ED1DFF8BC06B0F93A003D
S11335C0012824D1DFF8B006B0F99601DFF8A81677
S11335D0B1F99411002205920022049280B2800075
S11335E080B2039089B2880080B2029000200190DA
S11335F0DFF88406B0F8680080B200904FF6887354
S113360000220221607B80B200F000FE4AE0DFF875
S11336106806B0F99601DFF86016B1F9941100223A
S113362005920022049280B2800080B2039089B295
S1133630880080B2029000200190DFF83C06B0F8C8
S1133640680080B20090782300220221607B80B25F
S113365000F0DCFD26E0607B032823D1DFF81806A8
S1133660B0F99001DFF81016B1F98E11002205921D
S11336700022049280B2800080B2039089B2880054
S113368080B2029000200190DFF8EC05B0F86800E9
S113369080B200904FF6887300220221607B80B2D2
S11336A000F0B4FD62B6002021E000200090002369
S11336B0227B4121DFF8C80501F0F8F8002016E06C
S11336C00879217B884204D10FF22900206002206E
S11336D00DE000200BE0002000900023227B42211B
S11336E0DFF89C0501F0E2F8002000E0002006B0BD
S11336F010BD000010B504000888401E07D0401E0D
S11337003AD0643805282CD917381CD036E0DFF8B5
S11337106805B0F9C407022808D1DFF8600580887D
S1133720C0B250F49050DFF854158880A06800F0BF
S11337304BFF0020A168486114226168A06800F072
S113374079FF00201BE072B6DFF83805617B4FF487
S1133750C87202FB0100042180F8141162B6002033
S11337600DE00879617B884204D10FF215002060D6
S1133770022004E0002002E0002000E0002010BD50
S113378010B504000888012804D0022824D07D281C
S11337901DD023E0DFF8E004B0F9C407022808D103
S11337A0DFF8D8048088C0B250F49850DFF8CC1405
S11337B08880A06800F008FF0020A16848614FF4E9
S11337C0C8726168A06800F035FF002007E00FF2BE
S11337D011002060022002E0002000E0002010BD63
S11337E010B586B004000888401E10D0401E00F0BA
S11337F0E880443800F0B980801E00F0B6801E389E
S1133800052840F2C880173800F0A480E3E0DFF810
S11338106804B0F9C407022808D1DFF8600480887E
S1133820C0B250F4A050DFF854148880A06800F0AF
S1133830CBFE0020A168486104226168A06800F002
S1133840F9FE002000900123227B4321DFF830049D
S113385001F02CF872B6607B04284ED1DFF818040E
S1133860B0F93A00012823D1DFF80C04B0F996012D
S1133870DFF80414B1F99411002205920022049295
S113388080B2400080B2039089B2480080B20290B6
S113389000200190DFF8E003B0F8680080B20090E7
S11338A0142300220221607B80B200F0AFFC4AE0C6
S11338B0DFF8C403B0F99601DFF8BC13B1F9941131
S11338C0002205920022049280B2400080B203904C
S11338D089B2480080B2029000200190DFF898037A
S11338E0B0F8680080B200904FF6EC730022022119
S11338F0607B80B200F08AFC25E0607B032822D143
S1133900DFF87403B0F99001DFF86C13B1F98E118C
S1133910002205920022049280B2400080B20390FB
S113392089B2480080B2029000200190DFF8480379
S1133930B0F8680080B20090142300220221607B5A
S113394080B200F063FC62B60020DFF83C1308701C
S1133950002041E0002000900023227B4121DFF879
S1133960200300F0A3FF002036E00879217B884281
S11339700FD172B6DFF80C03617B4FF4C87202FBFF
S11339800100042180F8141162B60120DFF8F81256
S11339900870002020E0DFF8F002007801280BD145
S11339A00879617B884207D1002000900023627B64
S11339B07A21606800F07AFFDFF8D00220600220EC
S11339C00AE0002000900023227B4321AC4800F051
S11339D06DFF002000E0002006B010BD30B587B0B8
S11339E004000888401E0AD0401E00F0AB806438F2
S11339F0052840F29580173800F08580ADE09E4898
S1133A00B0F9C407022806D19C488088C0B250F49B
S1133A10A8509A49888072B69A48617B4FF4C8725C
S1133A2002FB01000021A0F88A11607B002824D148
S1133A309448B0F88E017FF0410101FB00F58E48F7
S1133A40B0F9B4018C49B1F9B211012205920022F6
S1133A50049280B2039089B20291002001908648BA
S1133A60B0F8B60180B200904FF6FF730022022135
S1133A70607B80B200F0CAFB42E0607B022823D165
S1133A808048B0F8AE04922101FB00F57A48B0F901
S1133A90AE017949B1F9AC110122059200220492D8
S1133AA080B2039089B20291002001907248B0F86C
S1133AB0B00180B20090012348F2D0420221607B21
S1133AC080B200F0A3FB1BE06B48B0F9BA016A496D
S1133AD0B1F9B811012205920022049280B2039038
S1133AE089B20291002001906348B0F8BC0180B211
S1133AF00090052300220221607B80B200F086FB47
S1133B0062B600202AE072B65E48617B4FF4C87248
S1133B1002FB0100042180F8141162B600201DE0AC
S1133B200879617B88420BD1002000900023627BDE
S1133B307A21606800F0BAFE5448206002200DE04B
S1133B4000200BE04F48617B4FF4C87202FB010078
S1133B500021A0F88A11002000E0002007B030BD49
S1133B6010B504000888012804D002281FD07D283D
S1133B7019D01EE04048B0F9C407022806D13F48D6
S1133B808088C0B250F4B0503C498880A06800F0EE
S1133B901BFD0020A168486128226168A06800F02C
S1133BA049FD002006E03A482060022002E000209F
S1133BB000E0002010BD000010B5040008880128B2
S1133BC004D0022853D07D2833D052E02A48B0F9DB
S1133BD0C407022806D129488088C0B250F4B850DE
S1133BE026498880607B002806D12A48006850F066
S1133BF00070284908600FE0607B022806D126483F
S1133C00006850F020002449086005E0214800685D
S1133C1050F080601F490860A06800F0D5FC0020C7
S1133C20A168486104226168A06800F003FD0020D7
S1133C3020E0607B002806D11648006830F0007050
S1133C40144908600FE0607B022806D1124800681E
S1133C5030F020001049086005E00E48006830F09C
S1133C6080600C4908600D482060022002E00020BA
S1133C7000E0002010BD00003C36FF1FDC16FF1FD3
S1133C80AC16FF1F542EFF1F01B80020A134000002
S1133C90DD39000000F00F4040F00F40613B0000B0
S1133CA070B50C00057D1849EDB26E5CA4B2042C0D
S1133CB010DB16490988A4B28C420BD2EDB2002D58
S1133CC008D0EDB2402D05DA1149EDB251F82510B6
S1133CD0814203D030210F4800F048FF72B60E48ED
S1133CE00068A4B210EBC400F6B20B490968A4B290
S1133CF011EBC4013200D2B2515C084AEDB2AA5CA5
S1133D001143315462B670BDE0780100E8B7002079
S1133D106C15FF1F287B0100A816FF1F58780100AF
S1133D2080B5DFF89818C0B24FF4C87202FB0011D6
S1133D30D1F85411012904DBC0B280B201F09FFC18
S1133D400EE0DFF87818C0B24FF4C87202FB00111D
S1133D50D1F85411002903D5C0B280B201F0CEFCD1
S1133D6001BD10B50400DFF85408E4B24FF4C87183
S1133D7001FB0400B0F98401012840F08580002093
S1133D80DFF83818E4B24FF4C87202FB0411A1F84A
S1133D908401E4B2200080B201F000FCDFF81C08CA
S1133DA0E4B24FF4C87101FB0400D0F854010128B7
S1133DB011DBDFF80808E4B24FF4C87101FB04001A
S1133DC00068401CDFF8F417E4B24FF4C87202FB39
S1133DD0041108601BE0DFF8E407E4B24FF4C87193
S1133DE001FB0400D0F85401002810D5DFF8CC07FB
S1133DF0E4B24FF4C87101FB04000068401EDFF810
S1133E00BC17E4B24FF4C87202FB04110860DFF877
S1133E10AC07E4B24FF4C87101FB0400B0F8AC0085
S1133E20401CDFF89817E4B24FF4C87202FB041187
S1133E30A1F8AC00DFF88407E4B24FF4C87101FBC9
S1133E400400B0F8AC00332823DADFF87007E4B2DA
S1133E504FF4C87101FB0400B0F8AC00DFF85C1744
S1133E60E4B24FF4C87202FB041180B211EB4000BB
S1133E70DFF84817E4B24FF4C87202FB0411D1F81A
S1133E805011A0F8AC1004E0E4B2200080B201F0BC
S1133E90BFFB10BD10B5040000202060002020727C
S1133EA0002060729022DFF8181714F10C0001F062
S1133EB09BFD14F10C00C4F81801012084F81601CC
S1133EC0002084F814010420C4F84C0194F88C01F7
S1133ED0002813D0022804D01ED3042836D028D3B7
S1133EE040E06020C4F85C015FF48030D4F85C11D9
S1133EF090FBF1F0401CA4F88E0133E04FF4C07045
S1133F00C4F85C015FF48030D4F85C1190FBF1F0EC
S1133F10401CA4F88E0125E06020C4F85C015FF425
S1133F208030D4F85C1190FBF1F0401CA4F88E01B1
S1133F3018E06020C4F85C015FF48030D4F85C11B0
S1133F4090FBF1F0401CA4F88E010BE06020C4F853
S1133F505C015FF48030D4F85C1190FBF1F0401CFC
S1133F60A4F88E015FF48030D4F85C1190FBF1F07A
S1133F70C4F86001D4F85C01D4F860114843D0F56A
S1133F808030C4F86401D4F85C01D4F8641190FB67
S1133F90F1F0C4F86801D4F86001C4F88001D4F8E1
S1133FA06801012804D1D4F88001401CC4F88001C0
S1133FB0D4F880014042C4F878010020A4F88A01B2
S1133FC010BD10B5E2B004004FF4C8706190002039
S1133FD06090DFF8E805A4B24FF4C87101FB040156
S1133FE084B068464FF4C87201F02EFD0FBC01F096
S1133FF01CFDDFF8C805A4B24FF4C87101FB04002E
S113400080F88C41200080B201F0A5FBDFF8AC05FC
S1134010A4B24FF4C87101FB0400FFF73BFF62B088
S113402010BD10B5DFF89C050088401CDFF894151E
S11340300880DFF8900500880428C0F2DC800020A6
S1134040DFF880150880002452E0E4B2200080B23A
S113405001F081FBDFF86405E4B24FF4C87101FBA1
S113406004009C3001F04AFD2000C0B2FFF758FE66
S1134070DFF84805E4B24FF4C87101FB04009C303A
S113408002F022F9DFF83405E4B24FF4C87101FB01
S11340900400407ADFF82415E4B24FF4C87202FB3E
S11340A0041191F81411C0B288420FD0DFF80C0546
S11340B0E4B24FF4C87101FB040090F8140106281F
S11340C004D1E4B2200080B201F0A9FBDFF8EC04D3
S11340D0E4B24FF4C87101FB040090F81401DFF856
S11340E0DC14E4B24FF4C87202FB04114872641C7D
S11340F0E4B2052C80F27F80DFF8C004E4B24FF410
S1134100C87101FB040090F8140100281AD00020A3
S1134110DFF8A814E4B24FF4C87202FB0411A1F84A
S11341208801DFF89804E4B24FF4C87101FB04007D
S1134130B0F88A0100288DD1E4B2200080B201F0E9
S113414037FB87E7DFF87404E4B24FF4C87101FB6E
S1134150040090F88C01002806D0022804D029D34A
S1134160042827D026D375E7DFF85004E4B24FF4CF
S1134170C87101FB0400B0F88801B0F57A6F13DA56
S1134180DFF83804E4B24FF4C87101FB0400B0F85E
S11341908801401CDFF82414E4B24FF4C87202FB17
S11341A00411A1F8880104E0E4B2200080B201F017
S11341B0D2FA4FE7DFF80404E4B24FF4C87101FB0C
S11341C00400B0F88801B0F5C87FBFF63EAFDFF851
S11341D0EC03E4B24FF4C87101FB0400B0F88801A9
S11341E0401CDFF8D813E4B24FF4C87202FB041188
S11341F0A1F888012EE7002404E02000C0B2FFF7F4
S1134200B0FD641CE4B2052CF7DB10BD70B40024CF
S1134210DFF8A85380B24FF4C87606FB0055C5F802
S113422038410024DFF8945380B24FF4C87606FB7B
S11342300055C5F85041089C012C40F0A980002489
S1134240DE4D80B24FF4C87606FB0055C5F86C41CC
S11342500024DA4D80B24FF4C87606FB0055C5F849
S113426070410024D54D80B24FF4C87606FB00554A
S1134270C5F874410024D14D80B24FF4C87606FBD2
S11342800055C5F87C415FF48034CC4D80B24FF4C6
S1134290C87606FB0055D5F85C5194FBF5F4C74D80
S11342A080B24FF4C87606FB0055C5F86041C34C94
S11342B080B24FF4C87505FB0044D4F85C41BF4D8F
S11342C080B24FF4C87606FB0055D5F860516C43B4
S11342D0D4F58034B94D80B24FF4C87606FB00554E
S11342E0C5F86441B54C80B24FF4C87505FB004471
S11342F0D4F85C41B14D80B24FF4C87606FB00554A
S1134300D5F8645194FBF5F4AC4D80B24FF4C87603
S113431006FB0055C5F86841A84C80B24FF4C87537
S113432005FB0044D4F86041A44D80B24FF4C87634
S113433006FB0055C5F88041A04C80B24FF4C87507
S113434005FB0044D4F86841012C10D19B4C80B289
S11343504FF4C87505FB0044D4F88041641C974DA4
S113436080B24FF4C87606FB0055C5F88041934CE3
S113437080B24FF4C87505FB0044D4F88041644210
S11343808E4D80B24FF4C87606FB0055C5F87841CF
S113439089B28A4C80B24FF4C87505FB0044E160D1
S11343A00021864C80B24FF4C87505FB004421619E
S11343B092B2824980B24FF4C87404FB00114A617E
S11343C09BB27E4980B24FF4C87202FB00118B612C
S11343D003997A4A80B24FF4C87303FB0022D16177
S11343E00499764A80B24FF4C87303FB0022116229
S11343F00599724A80B24FF4C87303FB00225162DC
S113440006996E4A80B24FF4C87303FB002291628E
S113441007996A4A80B24FF4C87303FB0022D16241
S11344200121664A80B24FF4C87303FB002282F86C
S113443016110121614A80B24FF4C87303FB0020B6
S113444080F8141170BC7047F0B400245B4D80B246
S11344504FF4C87606FB0055C5F838410024574D83
S113446080B24FF4C87606FB0055C5F850410224CB
S1134470524D80B24FF4C87606FB0055EC60002420
S11344804E4D80B24FF4C87606FB00552C6109B23C
S11344904A4C80B24FF4C87505FB004461610021A9
S11344A0464C80B24FF4C87505FB0044A1619BB231
S11344B0424980B24FF4C87404FB0011CB6100215F
S11344C03E4C80B24FF4C87505FB00442162059947
S11344D089B23A4C80B24FF4C87505FB004461625E
S11344E0069CA4B2354D80B24FF4C87606FB005545
S11344F0AC620225314E80B24FF4C87707FB0066E8
S1134500F56202252D4E80B24FF4C87707FB006692
S113451035630025294E80B24FF4C87707FB006647
S1134520756312B2254D80B24FF4C87606FB005570
S1134530AA630022214D80B24FF4C87606FB0055D1
S1134540EA639BB21D4A80B24FF4C87505FB002292
S113455013640022194B80B24FF4C87505FB003375
S11345605A6489B2154A80B24FF4C87303FB00221F
S11345709164A4B2114980B24FF4C87202FB0011D5
S1134580CC6401210D4A80B24FF4C87303FB0022AE
S113459011650121094A80B24FF4C87303FB00225C
S11345A082F816110121054A80B24FF4C87303FB47
S11345B0002080F81411F0BC70470000542EFF1F37
S11345C038770100ECB7002072B64168002914D096
S11345D001210C4A1268904203D18268094B1A6087
S11345E008E08268002A02D0426883685A608268C0
S11345F043689A600022426000E0002162B608002D
S1134600C0B270479C26FF1F38B5040025682000FF
S1134610A847C0B2022807D104492000A8470500D2
S1134620034920002268904731BD00BF7C7A010015
S1134630787A010070B504000D001600002E07D032
S11346402088042804DB6068002801D1002D03D1F0
S113465030210A4800F08AFA26616460E56072B687
S113466007480068A06006480068002802D0044893
S1134670006844600248046062B670BD607B01005B
S11346809C26FF1FE0B572B6DFF8B80301F0C4FE44
S1134690DFF8B40302F036F9DFF8B00302F012FADF
S11346A0DFF8AC03FCF740FCDFF8A80303F008F8DC
S11346B0DFF8A40303F048FBDFF8A00303F0A4FE33
S11346C0DFF89C0304F04CFDDFF8980305F0DAF9F9
S11346D0DFF8940305F04EFADFF8900305F03CFB95
S11346E0DFF88C0305F09AFB0020DFF888130870CC
S11346F00020DFF8841308700020DFF880130870AE
S113470006F037FDDFF878030068000709D5DFF805
S113471074030068400504D5DFF868030068C0032B
S113472003D4AA20DFF850130870DFF85803006898
S1134730000503D40120DFF84413087006F034FDAB
S11347407B21DFF8440306F08DFD08224FF4C0718D
S1134750DFF8380306F090FD14224FF4F071DFF80F
S1134760300306F089FD18224FF49061DFF824032A
S113477006F082FD002002900020019000200090AD
S11347800823DFF814230421DFF8D80206F041FDE2
S11347900020029000200190002000900823DFF800
S11347A0FC220521B14806F034FD002002900020CF
S11347B00190002000902023DFF8E4220F21A2487A
S11347C006F027FD002002900020019000200090B8
S11347D02023DFF8D0220D219A4806F01AFD00208C
S11347E0029000200190002000900823AE4A062188
S11347F09A4806F00EFD002002900020019000204F
S113480000900823A94A0721954806F002FD0020DC
S1134810029000200190002000900823A44A08215F
S11348208D4806F0F6FC0020029000200190002044
S1134830009008239F4A0921864806F0EAFC0020DC
S1134840029000200190002000900C239A4A0A2133
S11348507F4806F0DEFC002002900020019000203A
S113486000900C23954A0B21784806F0D2FC0020D6
S1134870029000200190002000901023904A0C2107
S11348807B4806F0C6FC0020029000200190002026
S1134890009010238B4A0E21734806F0BAFC62B6CE
S11348A001208949087006F081FC07BD70B5040039
S11348B015001E0089B2082006F016FD0571467128
S11348C00499C180002C04D00100200006F040FDB2
S11348D001E006F08DFD70BD70B5040015001E00EA
S11348E089B2082006F000FD057146710499C18063
S11348F0002C04D00100200006F02AFD01E006F09F
S113490077FD70BD70B5040015001E0089B2082043
S113491006F0EAFC05714671049981710599C1712B
S1134920002C04D00100200006F012FD01E006F086
S11349305FFD70BD70B5040015001E0089B208202B
S113494006F0D2FC8580C680002C04D00100200033
S113495006F0FEFC01E006F04BFD70BD38B5040026
S1134960150089B2082006F0BFFC4560002C04D075
S11349700100200006F0ECFC01E006F039FD31BD39
S113498038B50400150089B2142006F0ADFCA968FE
S1134990C160E96801612968416029790172002CCC
S11349A004D00100200006F0D3FC01E006F020FD55
S11349B031BD38B50400150089B2182006F094FC06
S11349C0002105E0C9B24A5DC9B20B181A71491C2D
S11349D0C9B21429F6DB002C04D00100200006F033
S11349E0B7FC01E006F004FD31BD00B585B000A8B8
S11349F03649102201F028F83548B0F9C4070128D7
S1134A001EDB3448006834490968884205D13148BE
S1134A10406831494968884212D02F4800680290A2
S1134A202D484068039000AA78210648FFF7A8FFA4
S1134A302948006827490860274840682549486094
S1134A4005B000BD380BFF1FA026FF1FE425FF1F84
S1134A50D414FF1FE82CFF1F5814FF1F642DFF1FE1
S1134A60DC2DFF1F6C26FF1FAC16FF1F3826FF1F0F
S1134A704425FF1F62B7002063B7002064B70020FD
S1134A8090F00F4050F00F40EC16FF1F641DFF1F05
S1134A906423FF1FE41EFF1FE41CFF1F441DFF1FB0
S1134AA0641CFF1FE41BFF1FA41BFF1FC41BFF1F6D
S1134AB0841BFF1F641BFF1F341BFF1F041BFF1FEE
S1134AC0C41AFF1F041DFF1F0EB80020847A0100C2
S1134AD03C36FF1FE416FF1FDC16FF1F70B50C00E9
S1134AE0057D1849EDB26E5CA4B2042C10DB1649A6
S1134AF00988A4B28C420BD2EDB2002D08D0EDB2DD
S1134B00402D05DA1149EDB251F82510814203D048
S1134B1030210F4800F02AF872B60E480068A4B29B
S1134B2010EBC400F6B20B490968A4B211EBC4013E
S1134B303200D2B2515C084AEDB2AA5C1140315441
S1134B4062B670BDE0780100E8B700206C15FF1F65
S1134B50307B0100A816FF1F9C780100002848BF85
S1134B60404270477047000062B6704772B6FEE775
S1134B7010B50400200022689047022803D0322197
S1134B800348FFF7F3FF034920002268904710BD54
S1134B90A07A0100787A0100DFF8F8090068C00CF7
S1134BA0DFF8481B098860F30001DFF8400B01803F
S1134BB0DFF8E4090068DFF8341B098860F3410179
S1134BC0DFF8280B0180DFF8CC090068400BDFF820
S1134BD01C1B098860F38201DFF8100B0180DFF8E9
S1134BE0B4090068800BDFF8041B098860F3C30173
S1134BF0DFF8F80A0180DFF89C090068800CDFF810
S1134C00EC1A098860F30411DFF8E00A0180DFF888
S1134C10FC0900688009DFF8D41A098860F345119B
S1134C20DFF8C80A0180DFF8E4090068C009DFF88A
S1134C30BC1A098860F38611DFF8B00A0180DFF836
S1134C40580900684008DFF8A41A098860F3C711FE
S1134C50DFF8980A0180DFF8400900688008DFF86F
S1134C608C1A098860F30821DFF8800A0180DFF8D4
S1134C7024090068000BDFF8741A098860F34921DD
S1134C80DFF8680A0180DFF80C090068DFF85C1AB5
S1134C90098860F38A21DFF8540A0180DFF8F408F8
S1134CA000684008DFF8441A098860F3CB21DFF874
S1134CB03C0A0180DFF8DC080068C008DFF82C1A21
S1134CC0098860F30C31DFF8240A0180DFF83C091D
S1134CD00068800ADFF8141A098860F34D31DFF8A0
S1134CE00C0A0180DFF824090068000CDFF8FC19C5
S1134CF0098860F38E31DFF8F4090180DFF80C09CC
S1134D000068C00A10F00100DFF8E01909884904BE
S1134D10490C51EAC030DFF8D4190880DFF8D00913
S1134D200068800ADFF8CC19098860F30001DFF815
S1134D30C4090180DFF8C0090068C009DFF8B419AC
S1134D40098860F34101DFF8AC090180DFF8A809A4
S1134D500068C00ADFF89C19098860F38201DFF853
S1134D6094090180DFF890090068400CDFF8841989
S1134D70098860F3C301DFF87C090180DFF8780952
S1134D800068000FDFF86C19098860F30411DFF87C
S1134D9064090180DFF874080068C008DFF854195A
S1134DA0098860F34511DFF84C090180DFF83C09FC
S1134DB0006880B27047C0B200282ED0022845D0C7
S1134DC038D304285CD04ED3062873D065D3082882
S1134DD000F08A807BD30A2800F0A080C0F0918084
S1134DE00C2800F0B480C0F0A5800E2800F0C98023
S1134DF0C0F0BA80102800F0E280C0F0CF80122802
S1134E0000F0F680C0F0E880142800F00981C0F0BA
S1134E10FB80152800F010811AE1DFF8780700689C
S1134E20C00CDFF8C818098860F30001DFF8BC087B
S1134E3001800DE1DFF860070068DFF8B018098829
S1134E4060F34101DFF8A408018001E1DFF84407C1
S1134E500068400BDFF89418098860F38201DFF8DA
S1134E608C080180F4E0DFF82C070068800BDFF881
S1134E707C18098860F3C301DFF870080180E7E05B
S1134E80DFF810070068800CDFF86018098860F309
S1134E900411DFF858080180DAE0DFF870070068D1
S1134EA08009DFF84818098860F34511DFF83C08E9
S1134EB00180CDE0DFF854070068C009DFF82C1842
S1134EC0098860F38611DFF824080180C0E0DFF868
S1134ED0C80600684008DFF81418098860F3C71191
S1134EE0DFF808080180B3E0DFF8AC06006880084A
S1134EF0DFF8F817098860F30821DFF8F00701806C
S1134F00A6E0DFF890060068000BDFF8E0170988D8
S1134F1060F34921DFF8D407018099E0DFF87406D3
S1134F200068DFF8C817098860F38A21DFF8BC0736
S1134F3001808DE0DFF85C0600684008DFF8AC17FC
S1134F40098860F3CB21DFF8A407018080E0DFF853
S1134F5044060068C008DFF89417098860F30C3130
S1134F60DFF88807018073E0DFF8A0060068800A94
S1134F70DFF87817098860F34D31DFF87007018096
S1134F8066E0DFF888060068000CDFF8601709881F
S1134F9060F38E31DFF85407018059E0DFF86C06C6
S1134FA00068C00A10F00100DFF8401709884904BE
S1134FB0490C51EAC030DFF83417088048E0DFF8C4
S1134FC030070068800ADFF82C17098860F30001B5
S1134FD0DFF8200701803BE0DFF81C070068C00908
S1134FE0DFF81017098860F34101DFF80807018032
S1134FF0DFF804070068C00ADFF8F816098860F3D0
S11350008201DFF8F0060180DFF8EC060068400C4E
S1135010DFF8E016098860F3C301DFF8D8060180E1
S1135020DFF8D4060068000FDFF8C816098860F3BB
S11350300411DFF8C0060180DFF8D0050068C0085D
S1135040DFF8B016098860F34511DFF8A80601807F
S1135050704710B588B001A8DFF89418182200F042
S1135060F3FC002406E00020DFF88818A4B221F83D
S11350701400641CA4B2072C80F22A812000C0B260
S1135080FFF799FEDFF828090068E04010F00100FE
S1135090DFF858160968E14011F001018842E2D0B6
S11350A0DFF85008A4B230F81400401CDFF84418AC
S11350B0A4B221F81400DFF83C08A4B230F81400BC
S11350C001A9A4B2615C89B28842D2D10020DFF880
S11350D02418A4B221F81400DFF810060068E04098
S11350E0C0077AD5DFF8C80800680121A140084349
S11350F0DFF8BC180860DFF8BC08B0F9C407012861
S11351005ADBA4B2022C0ED1DFF8A808B0F9C40708
S1135110012808D1DFF8A0088088C0B250F41450E8
S1135120DFF894188880A4B2002C0ED1DFF884082C
S1135130B0F9C407032808D1DFF87C088088C0B21E
S113514050F41850DFF870188880A4B2032C0ED1E4
S1135150DFF86008B0F9C607012808D1DFF858085D
S11351600088C0B250F41450DFF84C180880A4B280
S1135170012C0ED1DFF83C08B0F9C607032808D18A
S1135180DFF834080088C0B250F41850DFF828184B
S11351900880A4B2042C0FD1DFF81808B0F9C807AE
S11351A0012809D1DFF81008808810F47F4050F0FE
S11351B02500DFF804188880DFF800080068E04064
S11351C0C0077FF556AF0020009000232200D2B222
S11351D047210020FFF76AFB4BE7DFF8D40700689C
S11351E00121A1408843DFF8C8170860DFF8C4072D
S11351F0B0F9C40701285ADBA4B2022C0ED1DFF89F
S1135200B407B0F9C407012808D1DFF8AC078088D7
S1135210C0B250F40050DFF8A0178880A4B2002C6C
S11352200ED1DFF89007B0F9C407032808D1DFF8DE
S113523088078088C0B250F40450DFF87C17888057
S1135240A4B2032C0ED1DFF86C07B0F9C60701280D
S113525008D1DFF864070088C0B250F40050DFF8CA
S113526058170880A4B2012C0ED1DFF84807B0F912
S1135270C607032808D1DFF840070088C0B250F4FD
S11352800450DFF834170880A4B2042C0FD1DFF8DF
S11352902407B0F9C807012809D1DFF81C07808862
S11352A010F47F4050F02000DFF80C178880DFF8FE
S11352B010070068E040C0077FF5DBAE00200090D7
S11352C000232200D2B248210020FFF7EFFAD0E6F3
S11352D0072429E00020DFF81C16A4B221F81400EA
S11352E0A4B20C2C1FD1DFF8C8060068E040C00748
S11352F019D4DFF8D0060088401CDFF8C8160880EF
S1135300DFF8C0060088B0F57A7F0CD10020DFF802
S1135310B416088000200090002300221C21DFF82E
S1135320A806FFF7C3FA641CA4B2162C80F23081DD
S11353302000C0B2FFF73FFDDFF874060068E040CC
S113534010F00100DFF8A4130968E14011F0010135
S11353508842BFD0DFF89C05A4B230F81400401C8A
S1135360DFF89015A4B221F81400DFF88805A4B280
S113537030F8140001A9A4B2615C89B28842D2D188
S11353800020DFF87015A4B221F81400DFF85C03E4
S11353900068E040C00760D5DFF81406006801210A
S11353A0A1400843DFF808160860A4B220000728CB
S11353B00CD0082814D009282CD00A281AD00B287D
S11353C027D00E2830D0102838D0ACE70020009029
S11353D0002300222421DFF8F005FFF767FAA2E793
S11353E000200090002300222121DFF8DC05FFF7D4
S11353F05DFA98E7DFF8B8050068000508D50020D5
S11354000090002300221B21DFF8BC05FFF74EFAB1
S113541089E788E700200090002300221F21DFF89D
S1135420A805FFF743FA7EE700200090002300223E
S11354301E21DFF89405FFF739FA74E70020009085
S1135440002300222021DFF88005FFF72FFA002037
S1135450DFF8741581F89A0065E7DFF854050068F1
S11354600121A1408843DFF848150860A4B2072C45
S113547017D0FFF458AF092C27D01CD30B2C3DD0E8
S11354802DD30D2C45D03AD30F2C56D04BD3112C01
S113549071D061D3132C6ED06DD3152C6BD06AD31D
S11354A041E700200090002300222321DFF81805A3
S11354B0FFF7FCF937E700200090002300222221A7
S11354C0DFF80405FFF7F2F92DE700200090002330
S11354D001221F21DFF8F004FFF7E8F923E7DFF8E2
S11354E0D0040068000508D50020009000230022A5
S11354F01B21DFF8D404FFF7D9F914E713E70020E0
S11355000090002300221C21DFF8BC04FFF7CEF931
S113551009E700200090002300221D21DFF8A804E1
S1135520FFF7C4F9FFE600200090002301221E21AA
S1135530DFF89404FFF7BAF9F5E6DFF874040068BD
S1135540000508D400200090002300221B21DFF86E
S11355507804FFF7ABF9E6E6002000900023002270
S11355602021DFF86404FFF7A1F90020DFF85814C4
S113557081F89A00D7E60020009000232000B0F1C3
S11355801102D2B22521DFF84004FFF78FF9CAE6F1
S113559008B010BD90F00F40D0F00F4080B200284A
S11355A006D0022816D00CD3042825D01BD32BE018
S11355B0DFF81804006850F02000DFF810140860C9
S11355C022E0DFF80804006850F40070DFF8FC13F0
S11355D0086019E0DFF8F403006850F40050DFF8C5
S11355E0EC13086010E0DFF8E803006850F00100F5
S11355F0DFF8DC13086007E0DFF8D403006850F03C
S11356000200DFF8CC1308607047000050F00F4030
S113561080B2002806D0022816D00CD3042825D046
S11356201BD32BE0DFF8A403006830F02000DFF880
S11356309C13086022E0DFF89403006830F40070E3
S1135640DFF88813086019E0DFF88003006830F49D
S11356500050DFF87813086010E0DFF87403006886
S113566040084000DFF86813086007E0DFF86003D3
S1135670006830F00200DFF858130860704780B209
S1135680002806D0022816D00CD3042825D01BD31A
S11356902BE0DFF83803006850F04000DFF82C13EB
S11356A0086022E0DFF82403006850F48060DFF82B
S11356B01C13086019E0DFF81403006850F480300C
S11356C0DFF80813086010E0DFF80003006850F00A
S11356D00060DFF8F812086007E0DFF8F402006801
S11356E050F00400DFF8E8120860704744B7002067
S11356F010F10F4046B7002010F00F4080B2002890
S113570006D0022812D00AD304281DD015D321E0D4
S1135710AE48006830F04000AC4908601AE0AB487D
S1135720006830F48060A949086013E0A748006865
S113573030F48030A54908600CE0A448006830F0DB
S11357400060A249086005E0A148006830F0040048
S11357509F490860704780B2002806D0022812D002
S11357600AD304281DD015D321E09848006850F4CA
S11357708070964908601AE09448006850F480509C
S11357809249086013E09148006850F080708F4996
S113579008600CE08D48006850F000508B490860A8
S11357A005E08B48006850F0100089490860704794
S11357B080B2002806D0022812D00AD304281DD0B3
S11357C015D321E08148006830F480707F49086077
S11357D01AE07E48006830F480507C49086013E089
S11357E07A48006830F08070784908600CE07748A7
S11357F0006830F000507549086005E0744800689E
S113580030F0100072490860704780B500200090A5
S1135810002300226C216F48FFF748F801BD80B5D2
S113582080B2002810D0022804D017D3042829D02D
S11358301ED330E00021009100230200D2B26A217D
S11358400020FFF733F826E0002100910023020036
S1135850D2B26B210020FFF729F81CE0002100914F
S113586000230200D2B269210020FFF71FF812E0E2
S11358700021009100230200D2B266210020FFF72C
S113588015F808E00021009100230200D2B267213C
S11358900020FFF70BF801BD70B504004FF4487009
S11358A04D49088000251CE04248B0F9BE604148DB
S11358B0ADB2032101FB050090F98108FFF74EF911
S11358C040F6B83116FB01F1444A32F8100091FB5E
S11358D0F0F04149098880B2884201D23E490880EB
S11358E06D1CADB2A4B2A542DED33B48008870BDA6
S11358F03C7A010094B7002070B504002D48A4B28E
S1135900032101FB040090F98408FFF727F980289C
S11359100CDB2848A4B2032101FB040090F985089C
S1135920FFF71CF9802801DB642564202148B0F9C5
S1135930C2502048A4B2032101FB040090F984085A
S1135940FFF70CF940F6B83115FB01F1244A32F89F
S1135950100091FBF0F51748B0F9C2601548A4B2E5
S1135960032101FB040090F98508FFF7F7F840F6DE
S1135970B83116FB01F11B4A32F8100091FBF0F02C
S113598015490988ADB28D4201D213490D801249DF
S1135990098880B2884201D20F49088080B2ADB232
S11359A0A84201D280B201E0280080B270BD00009C
S11359B048B700203C36FF1FDC16FF1F4CB7002001
S11359C050B70020EEB700204425FF1F00F00F4021
S11359D040F00F40E425FF1FC4B50020C877010044
S11359E0B0700100B471010030B404000D0000284F
S11359F019D0002917D0002A15D012F00303D11AA8
S1135A00890803E02A6822602D1D241D0A00511E06
S1135A10002AF7D103E0297821706D1C641C190059
S1135A204B1E0029F7D130BC704710B40300002886
S1135A3008D0002A02D105E019705B1C1400621E14
S1135A40002CF9D110BC7047103A07D330B4B1E838
S1135A503810103AA0E83810F9D230BC530724BFEC
S1135A60B1E80810A0E8081044BF51F8043B40F81E
S1135A70043BD20724BF31F8022B20F8022B44BF89
S1135A800B7803707047083A07D3B1E80810083A56
S1135A9040F8043B40F804CBF7D25307E4E750F84E
S1135AA0041B61B150F8042BD30744BFA9F10103CF
S1135AB09A18002342F8043B091FFAD1EFE7704714
S1135AC00B68D2180A600A68002A09D40A680368B5
S1135AD013EB2232026008680005000D08600CE038
S1135AE00A68036813EB223202600268521C0260E7
S1135AF00868DFF8182910430860704738B50400B7
S1135B0094F8780084F8770094F8780000280ED090
S1135B10022800F0968110D3042800F05E83C0F0C0
S1135B20F482062800F08C83C0F02783A1E30020D0
S1135B30C4F8B800002020829BE3E06F94F87A1048
S1135B40242202FB01002438DFF8C4180860DFF8BF
S1135B50C0080068006884F87600DFF8B4080068BC
S1135B60001DDFF8AC180860DFF8A4080068001D09
S1135B70DFF89C180860DFF8980800680068DFF810
S1135B8094180860DFF888080068001DDFF88018A2
S1135B900860DFF880080068DFF87418096809688D
S1135BA05FF4803202FB0100DFF868180860DFF858
S1135BB060080068001DDFF858180860DFF8500816
S1135BC0006890ED000AB8EE400ADFF84408006867
S1135BD0001DDFF83C180860D4F8B00000F0F8FBB2
S1135BE0C4F89000002084F89400DFF824080068CA
S1135BF090ED000AB8EE400ADFF814080068001DB2
S1135C00DFF80C180860D4F8B00000F0E1FBC4F829
S1135C109800D4F8B010DFF8F807006800689FED2A
S1135C201B0A00F035FBDFF8E8170968091DDFF8E7
S1135C30E0271160C4F88000D4F8B010DFF8D00772
S1135C40006800689FED110A00F022FBDFF8C0171E
S1135C500968091DDFF8B8271160C4F8840094F8B6
S1135C607600002814D0022830D011D304284ED056
S1135C702CD306284CD04AD308284AD048D30A2823
S1135C8048D046D30B2845D0CDE000BF00007A446D
S1135C90DFF880070068C4F89C00D4F8B400D4F896
S1135CA09C10884203DA012084F87900BBE0D4F820
S1135CB09C00D4F8B410884203DA002084F87900F8
S1135CC0F4E7062084F878000020DBE2DFF84407DC
S1135CD00068D4F89C104018C4F89C00D4F8B400B0
S1135CE0D4F89C10884203DA012084F879009AE001
S1135CF0D4F89C00D4F8B410884203DA002084F865
S1135D007900F4E7062084F878000020BAE28AE0FB
S1135D1089E088E0DFF8FC06006880B2DFF8F4165A
S1135D200860012084F89500D4F89C00D4F8B410DD
S1135D30884229D1D4F8B40080B2DFF8D8160968B3
S1135D40884207D1002084F89500062084F8780062
S1135D50002097E20A1A012A09DBD4F89C2089184A
S1135D60081AC4F89C00012084F879005BE00A1A40
S1135D70002A58D5D4F89C208918081AC4F89C0025
S1135D80002084F879004EE0D4F8B800002822D42A
S1135D90012084F87900D4F8B40080B2DFF87416D6
S1135DA0096888420ADAD4F8B400000C0004DFF869
S1135DB0641609680818C4F89C0034E0D4F8B400E8
S1135DC0000C0004DFF84C160968081810F5803040
S1135DD0C4F89C0027E0D4F8B800002823D500209C
S1135DE084F87900DFF82C060068D4F8B41089B27E
S1135DF088420ADAD4F8B400000C0004DFF8141660
S1135E0009680818C4F89C000DE0D4F8B400000C2C
S1135E100004DFF800160968081800F17F4010F547
S1135E207F00C4F89C00D4F89C00D4F8B410401A45
S1135E30C4F8A400D4F8A400C4F8A800022084F88C
S1135E40780094F87900002855D1D4F8B8000128D6
S1135E5014DBD4F88400424214F1080114F1B800B0
S1135E60FFF72EFED4F8B800D4F89010C84235DA03
S1135E70D4F890004042C4F8B8002FE0D4F8900061
S1135E804042D4F8B810884214DAD4F88000424270
S1135E9014F1080114F1B800FFF712FED4F8B800A9
S1135EA0D4F89010C84219DAD4F890004042C4F8EB
S1135EB0B80013E0D4F8842014F1080114F1B800F8
S1135EC0FFF7FEFDD4F890004042D4F8B8108842A1
S1135ED004DAD4F890004042C4F8B800D4F8B8000A
S1135EE0D4F89010C84255D1012084F894000320BE
S1135EF084F878004EE0D4F8B800002812D5D4F81D
S1135F00842014F1080114F1B800FFF7D9FDD4F886
S1135F109000D4F8B810884230DAD4F89000C4F86D
S1135F20B8002BE0D4F8B800D4F89010884212DA04
S1135F30D4F8802014F1080114F1B800FFF7C0FD73
S1135F40D4F89000D4F8B810884217DAD4F8900046
