S02600004D756C746953686166745F426F6F744C6F616465725F556172745F4B32302E73726563AC
S1130000F80100208904000011040000110400001C
S11300101104000011040000110400001104000088
S11300201104000011040000110400001104000078
S11300301104000011040000110400001104000068
S113004010B50E4C00202070162060700020A072A5
S11300500C20E07001E000F00AF820798006FAD460
S113006010BD07490A785206FCD5C8707047044889
S113007001788906FCD5C0787047000000A00640CE
S113008004A006402C482D4A002110F8013B8B5453
S1130090491C8029F9D32A48016841F48031016060
S11300A07047284A10600720D0700868506048687C
S11300B0254990600C2008472DE9FC411746054668
S11300C088463E2F2BD215F0030F28D14FF0FF3472
S11300D068070AD5009400A958F8040B0190E808B1
S11300E0C000FFF7DEFFD0B92D1D7808460009D106
S11300F00AE041462846FFF7D4FF80B908F1080812
S11301000835B61E002EF4D1F8070AD5D8F8000039
S11301100090019400A92846FFF7C3FF08B101200D
S113012000E00020BDE8F681064908600920C87097
S113013004200549084700004C01000000FFFF1F90
S1130140448004401401002001FFFF1F10B50E4934
S11301500E4B0A1D0C782406FCD570240C7003E0A9
S113016013F8014B02F8014B0446601EE4B2002C64
S1130170F6D1087840F08000087008780006FCD5B5
S1130180087800F0310010BD000002401401002086
S11301904EF68851CEF20001086840F47000086001
S10D01A04FF00070E1EE100A704702
S1130400FFFFFFFFFFFFFFFFFFFFFFFFFEFFFFFFF9
S1130410DFF8F412DFF8F4020860FEE780F30888DE
S113042080F309888F46704700280CBFFC20032006
S1130430FFF717BE10B50446FFF7F6FF24B9CF2027
S1130440FFF70FFE632003E0D120FFF70AFE93209D
S1130450BDE81040FFF705BE10B5AD4CFFF707FE31
S1130460E070FFF704FEA070FFF701FE6070FFF775
S1130470FEFD207010BD10B5A54CFFF7F8FD6071AE
S1130480FFF7F5FD207110BD2DE9F84FA348A04CEE
S1130490DFF88CA2A34E4CF22051C1814DF62811F5
S11304A0C18110210180A04801684FF0FF31016033
S11304B0C268C16002690161426941610020A060B3
S11304C04FF440710120CAF80401984800780020D4
S11304D0B060904841600160FFF7B2FD4FF40048FE
S11304E08D4F9348DFF84C92786005203860386867
S11304F0C00313D50020B860A068401CA06000F0C1
S11305001F00102804BF0020FFF78EFFA068652895
S113051004D3D8F8080010F1010F11D199F80100A3
S11305208006E4D5FFF7AEFDDAF80401401CCAF8F2
S113053004010020FFF778FF02E00120FFF77AFFB3
S1130540DAF804010228C0F0CE80B06840F00070F0
S1130550B0604FF6FF753580B06820F00070B06071
S1130560FFF785FD45283ED0492816D0512807D0ED
S1130570522800F09280572844D0FC28D9D0DFE7D5
S11305803070FFF778FF00F0D9F8D6D10020FFF7DC
S113059051FF69495D484860FEE73070C9203070FA
S11305A0FFF75FFD4FF4EF7030600020FFF759FD57
S11305B00020FFF756FD0120FFF753FDDE20FFF773
S11305C050FD00250FF28C1B15F80B003070FFF75F
S11305D048FD6D1C202DF7D37078FFF742FD30786D
S11305E0FFF73FFDACE7FFF737FF45203070206889
S11305F03060FFF740FF00F0A1F89ED12068FFF7BC
S113060093FD9BE7FFF728FFFFF731FDCAF80001D0
S11306100025572000F096F805E0FFF728FD05F8BF
S11306200A0030706D1CDAF800018542F5D310F031
S1130630030F0DD0011D00F00302891A0546FF22A5
S113064002E000F80A206D1C8D42FAD3CAF80011AA
S1130650DAF800018008CAF80001FFF70CFF00F087
S11306606DF8CAD1DAF8002120685146FFF724FD5D
S11306700028C2D1002500E06D1CDAF80001854293
S113068009D221685AF8250051F825108842F3D080
S11306900120FFF7CFFE002050E7FFF7DDFEFFF754
S11306A0E6FCCAF80001FFF7E6FE522000F04AF823
S11306B000F044F8A1D1B06840F00070B06035801B
S11306C00025B06820F00070B06007E02068285C66
S11306D030702068285CFFF7C4FC6D1CDAF8000158
S11306E08542F3D378E70020386089F80000124986
S11306F0C1F80080D8F80410D8F80000FFF78EFE87
S11307000020BDE8F28F00000CED00E00400FA05C3
S1130710080100203890044010E000E0002005406B
S113072000000020002003402880044000F007401F
S11307303333030003A0064008ED00E0A0883188AD
S113074088427047307020683060DAF800013070F9
S1130750704700000000000100008000000FFFFF50
S1130760000008000000008000008000000000007D
S10707704B373000CF
S90304896F
